{
  "_format": "hh-sol-artifact-1",
  "contractName": "PlaidQuest",
  "sourceName": "contracts/PlaidQuest.sol",
  "abi": [
    {
      "inputs": [
        {
          "internalType": "address",
          "name": "_oracle",
          "type": "address"
        }
      ],
      "stateMutability": "nonpayable",
      "type": "constructor"
    },
    {
      "anonymous": false,
      "inputs": [
        {
          "indexed": true,
          "internalType": "address",
          "name": "user",
          "type": "address"
        },
        {
          "indexed": false,
          "internalType": "string",
          "name": "questId",
          "type": "string"
        },
        {
          "indexed": false,
          "internalType": "bool",
          "name": "completed",
          "type": "bool"
        },
        {
          "indexed": false,
          "internalType": "uint256",
          "name": "value",
          "type": "uint256"
        },
        {
          "indexed": false,
          "internalType": "string",
          "name": "details",
          "type": "string"
        }
      ],
      "name": "QuestCompleted",
      "type": "event"
    },
    {
      "inputs": [
        {
          "internalType": "address",
          "name": "user",
          "type": "address"
        },
        {
          "internalType": "string",
          "name": "questId",
          "type": "string"
        },
        {
          "internalType": "bool",
          "name": "completed",
          "type": "bool"
        },
        {
          "internalType": "uint256",
          "name": "value",
          "type": "uint256"
        },
        {
          "internalType": "string",
          "name": "details",
          "type": "string"
        }
      ],
      "name": "fulfillQuest",
      "outputs": [],
      "stateMutability": "nonpayable",
      "type": "function"
    },
    {
      "inputs": [],
      "name": "oracle",
      "outputs": [
        {
          "internalType": "address",
          "name": "",
          "type": "address"
        }
      ],
      "stateMutability": "view",
      "type": "function"
    },
    {
      "inputs": [
        {
          "internalType": "string",
          "name": "userId",
          "type": "string"
        }
      ],
      "name": "requestBalance",
      "outputs": [],
      "stateMutability": "nonpayable",
      "type": "function"
    },
    {
      "inputs": [
        {
          "internalType": "address",
          "name": "",
          "type": "address"
        },
        {
          "internalType": "string",
          "name": "",
          "type": "string"
        }
      ],
      "name": "userQuestResults",
      "outputs": [
        {
          "internalType": "bool",
          "name": "completed",
          "type": "bool"
        },
        {
          "internalType": "uint256",
          "name": "value",
          "type": "uint256"
        },
        {
          "internalType": "string",
          "name": "details",
          "type": "string"
        }
      ],
      "stateMutability": "view",
      "type": "function"
    }
  ],
  "bytecode": "0x608060405234801561001057600080fd5b506040516108c33803806108c383398101604081905261002f91610054565b600080546001600160a01b0319166001600160a01b0392909216919091179055610084565b60006020828403121561006657600080fd5b81516001600160a01b038116811461007d57600080fd5b9392505050565b610830806100936000396000f3fe608060405234801561001057600080fd5b506004361061004c5760003560e01c806318c8d9fa1461005157806349a85c071461007c5780637dc0d1d014610091578063c6981389146100bc575b600080fd5b61006461005f3660046103b2565b6100cf565b60405161007393929190610474565b60405180910390f35b61008f61008a36600461051c565b61019c565b005b6000546100a4906001600160a01b031681565b6040516001600160a01b039091168152602001610073565b61008f6100ca36600461055e565b610216565b600160208181526000938452604090932082518084018501805192815290850193909401929092209190925280549181015460028201805460ff9094169391929161011990610602565b80601f016020809104026020016040519081016040528092919081815260200182805461014590610602565b80156101925780601f1061016757610100808354040283529160200191610192565b820191906000526020600020905b81548152906001019060200180831161017557829003601f168201915b5050505050905083565b60005460405163de6b222f60e01b81526001600160a01b039091169063de6b222f906101ce9085908590600401610665565b6020604051808303816000875af11580156101ed573d6000803e3d6000fd5b505050506040513d601f19601f820116820180604052508101906102119190610681565b505050565b6000546001600160a01b031633146102745760405162461bcd60e51b815260206004820152601760248201527f4f6e6c79206f7261636c652063616e2066756c66696c6c000000000000000000604482015260640160405180910390fd5b6040518060600160405280851515815260200184815260200183838080601f01602080910402602001604051908101604052809392919081815260200183838082843760009201829052509390945250506001600160a01b038a168152600160205260409081902090519091506102ee908990899061069a565b90815260408051602092819003830190208351815460ff1916901515178155918301516001830155820151600282019061032890826106f8565b50905050866001600160a01b03167f0249cb200c6dc80e8c4361716cc92a859bfbd6cc4a3b6af6b2e41c226f30287e87878787878760405161036f969594939291906107b8565b60405180910390a250505050505050565b80356001600160a01b038116811461039757600080fd5b919050565b634e487b7160e01b600052604160045260246000fd5b600080604083850312156103c557600080fd5b6103ce83610380565b9150602083013567ffffffffffffffff808211156103eb57600080fd5b818501915085601f8301126103ff57600080fd5b8135818111156104115761041161039c565b604051601f8201601f19908116603f011681019083821181831017156104395761043961039c565b8160405282815288602084870101111561045257600080fd5b8260208601602083013760006020848301015280955050505050509250929050565b831515815260006020848184015260606040840152835180606085015260005b818110156104b057858101830151858201608001528201610494565b506000608082860101526080601f19601f83011685010192505050949350505050565b60008083601f8401126104e557600080fd5b50813567ffffffffffffffff8111156104fd57600080fd5b60208301915083602082850101111561051557600080fd5b9250929050565b6000806020838503121561052f57600080fd5b823567ffffffffffffffff81111561054657600080fd5b610552858286016104d3565b90969095509350505050565b600080600080600080600060a0888a03121561057957600080fd5b61058288610380565b9650602088013567ffffffffffffffff8082111561059f57600080fd5b6105ab8b838c016104d3565b909850965060408a0135915081151582146105c557600080fd5b90945060608901359350608089013590808211156105e257600080fd5b506105ef8a828b016104d3565b989b979a50959850939692959293505050565b600181811c9082168061061657607f821691505b60208210810361063657634e487b7160e01b600052602260045260246000fd5b50919050565b81835281816020850137506000828201602090810191909152601f909101601f19169091010190565b60208152600061067960208301848661063c565b949350505050565b60006020828403121561069357600080fd5b5051919050565b8183823760009101908152919050565b601f82111561021157600081815260208120601f850160051c810160208610156106d15750805b601f850160051c820191505b818110156106f0578281556001016106dd565b505050505050565b815167ffffffffffffffff8111156107125761071261039c565b610726816107208454610602565b846106aa565b602080601f83116001811461075b57600084156107435750858301515b600019600386901b1c1916600185901b1785556106f0565b600085815260208120601f198616915b8281101561078a5788860151825594840194600190910190840161076b565b50858210156107a85787850151600019600388901b60f8161c191681555b5050505050600190811b01905550565b6080815260006107cc60808301888a61063c565b861515602084015285604084015282810360608401526107ed81858761063c565b999850505050505050505056fea26469706673582212205e8b0212da4e6c60fe96006ae3d7464e5e9e308603f41b0abfa6f013de9a2fda64736f6c63430008140033",
  "linkReferences": {},
  "deployedLinkReferences": {}
}