{
  "_format": "hh-sol-artifact-1",
  "contractName": "PlaidQuestNFT",
  "sourceName": "contracts/PlaidQuestNFT.sol",
  "abi": [
    {
      "inputs": [
        {
          "internalType": "address",
          "name": "_oracle",
          "type": "address"
        }
      ],
      "stateMutability": "nonpayable",
      "type": "constructor"
    },
    {
      "inputs": [
        {
          "internalType": "address",
          "name": "sender",
          "type": "address"
        },
        {
          "internalType": "uint256",
          "name": "tokenId",
          "type": "uint256"
        },
        {
          "internalType": "address",
          "name": "owner",
          "type": "address"
        }
      ],
      "name": "ERC721IncorrectOwner",
      "type": "error"
    },
    {
      "inputs": [
        {
          "internalType": "address",
          "name": "operator",
          "type": "address"
        },
        {
          "internalType": "uint256",
          "name": "tokenId",
          "type": "uint256"
        }
      ],
      "name": "ERC721InsufficientApproval",
      "type": "error"
    },
    {
      "inputs": [
        {
          "internalType": "address",
          "name": "approver",
          "type": "address"
        }
      ],
      "name": "ERC721InvalidApprover",
      "type": "error"
    },
    {
      "inputs": [
        {
          "internalType": "address",
          "name": "operator",
          "type": "address"
        }
      ],
      "name": "ERC721InvalidOperator",
      "type": "error"
    },
    {
      "inputs": [
        {
          "internalType": "address",
          "name": "owner",
          "type": "address"
        }
      ],
      "name": "ERC721InvalidOwner",
      "type": "error"
    },
    {
      "inputs": [
        {
          "internalType": "address",
          "name": "receiver",
          "type": "address"
        }
      ],
      "name": "ERC721InvalidReceiver",
      "type": "error"
    },
    {
      "inputs": [
        {
          "internalType": "address",
          "name": "sender",
          "type": "address"
        }
      ],
      "name": "ERC721InvalidSender",
      "type": "error"
    },
    {
      "inputs": [
        {
          "internalType": "uint256",
          "name": "tokenId",
          "type": "uint256"
        }
      ],
      "name": "ERC721NonexistentToken",
      "type": "error"
    },
    {
      "inputs": [
        {
          "internalType": "address",
          "name": "owner",
          "type": "address"
        }
      ],
      "name": "OwnableInvalidOwner",
      "type": "error"
    },
    {
      "inputs": [
        {
          "internalType": "address",
          "name": "account",
          "type": "address"
        }
      ],
      "name": "OwnableUnauthorizedAccount",
      "type": "error"
    },
    {
      "anonymous": false,
      "inputs": [
        {
          "indexed": true,
          "internalType": "address",
          "name": "owner",
          "type": "address"
        },
        {
          "indexed": true,
          "internalType": "address",
          "name": "approved",
          "type": "address"
        },
        {
          "indexed": true,
          "internalType": "uint256",
          "name": "tokenId",
          "type": "uint256"
        }
      ],
      "name": "Approval",
      "type": "event"
    },
    {
      "anonymous": false,
      "inputs": [
        {
          "indexed": true,
          "internalType": "address",
          "name": "owner",
          "type": "address"
        },
        {
          "indexed": true,
          "internalType": "address",
          "name": "operator",
          "type": "address"
        },
        {
          "indexed": false,
          "internalType": "bool",
          "name": "approved",
          "type": "bool"
        }
      ],
      "name": "ApprovalForAll",
      "type": "event"
    },
    {
      "anonymous": false,
      "inputs": [
        {
          "indexed": false,
          "internalType": "uint256",
          "name": "_fromTokenId",
          "type": "uint256"
        },
        {
          "indexed": false,
          "internalType": "uint256",
          "name": "_toTokenId",
          "type": "uint256"
        }
      ],
      "name": "BatchMetadataUpdate",
      "type": "event"
    },
    {
      "anonymous": false,
      "inputs": [
        {
          "indexed": false,
          "internalType": "uint256",
          "name": "_tokenId",
          "type": "uint256"
        }
      ],
      "name": "MetadataUpdate",
      "type": "event"
    },
    {
      "anonymous": false,
      "inputs": [
        {
          "indexed": true,
          "internalType": "address",
          "name": "previousOwner",
          "type": "address"
        },
        {
          "indexed": true,
          "internalType": "address",
          "name": "newOwner",
          "type": "address"
        }
      ],
      "name": "OwnershipTransferred",
      "type": "event"
    },
    {
      "anonymous": false,
      "inputs": [
        {
          "indexed": true,
          "internalType": "address",
          "name": "user",
          "type": "address"
        },
        {
          "indexed": false,
          "internalType": "string",
          "name": "questId",
          "type": "string"
        },
        {
          "indexed": false,
          "internalType": "bool",
          "name": "completed",
          "type": "bool"
        },
        {
          "indexed": false,
          "internalType": "uint256",
          "name": "value",
          "type": "uint256"
        },
        {
          "indexed": false,
          "internalType": "string",
          "name": "details",
          "type": "string"
        }
      ],
      "name": "QuestCompleted",
      "type": "event"
    },
    {
      "anonymous": false,
      "inputs": [
        {
          "indexed": true,
          "internalType": "address",
          "name": "user",
          "type": "address"
        },
        {
          "indexed": false,
          "internalType": "string",
          "name": "questId",
          "type": "string"
        },
        {
          "indexed": false,
          "internalType": "uint256",
          "name": "tokenId",
          "type": "uint256"
        }
      ],
      "name": "QuestNFTMinted",
      "type": "event"
    },
    {
      "anonymous": false,
      "inputs": [
        {
          "indexed": true,
          "internalType": "address",
          "name": "from",
          "type": "address"
        },
        {
          "indexed": true,
          "internalType": "address",
          "name": "to",
          "type": "address"
        },
        {
          "indexed": true,
          "internalType": "uint256",
          "name": "tokenId",
          "type": "uint256"
        }
      ],
      "name": "Transfer",
      "type": "event"
    },
    {
      "inputs": [
        {
          "internalType": "address",
          "name": "to",
          "type": "address"
        },
        {
          "internalType": "uint256",
          "name": "tokenId",
          "type": "uint256"
        }
      ],
      "name": "approve",
      "outputs": [],
      "stateMutability": "nonpayable",
      "type": "function"
    },
    {
      "inputs": [
        {
          "internalType": "address",
          "name": "owner",
          "type": "address"
        }
      ],
      "name": "balanceOf",
      "outputs": [
        {
          "internalType": "uint256",
          "name": "",
          "type": "uint256"
        }
      ],
      "stateMutability": "view",
      "type": "function"
    },
    {
      "inputs": [
        {
          "internalType": "address",
          "name": "user",
          "type": "address"
        },
        {
          "internalType": "string",
          "name": "questId",
          "type": "string"
        },
        {
          "internalType": "bool",
          "name": "completed",
          "type": "bool"
        },
        {
          "internalType": "uint256",
          "name": "value",
          "type": "uint256"
        },
        {
          "internalType": "string",
          "name": "details",
          "type": "string"
        }
      ],
      "name": "fulfillQuest",
      "outputs": [
        {
          "internalType": "uint256",
          "name": "",
          "type": "uint256"
        }
      ],
      "stateMutability": "nonpayable",
      "type": "function"
    },
    {
      "inputs": [
        {
          "internalType": "uint256",
          "name": "tokenId",
          "type": "uint256"
        }
      ],
      "name": "getApproved",
      "outputs": [
        {
          "internalType": "address",
          "name": "",
          "type": "address"
        }
      ],
      "stateMutability": "view",
      "type": "function"
    },
    {
      "inputs": [
        {
          "internalType": "address",
          "name": "user",
          "type": "address"
        },
        {
          "internalType": "string",
          "name": "questId",
          "type": "string"
        }
      ],
      "name": "getQuestTokenId",
      "outputs": [
        {
          "internalType": "uint256",
          "name": "",
          "type": "uint256"
        }
      ],
      "stateMutability": "view",
      "type": "function"
    },
    {
      "inputs": [
        {
          "internalType": "address",
          "name": "user",
          "type": "address"
        }
      ],
      "name": "getUserTokenIds",
      "outputs": [
        {
          "internalType": "uint256[]",
          "name": "",
          "type": "uint256[]"
        }
      ],
      "stateMutability": "view",
      "type": "function"
    },
    {
      "inputs": [
        {
          "internalType": "address",
          "name": "owner",
          "type": "address"
        },
        {
          "internalType": "address",
          "name": "operator",
          "type": "address"
        }
      ],
      "name": "isApprovedForAll",
      "outputs": [
        {
          "internalType": "bool",
          "name": "",
          "type": "bool"
        }
      ],
      "stateMutability": "view",
      "type": "function"
    },
    {
      "inputs": [
        {
          "internalType": "address",
          "name": "to",
          "type": "address"
        },
        {
          "internalType": "string",
          "name": "questId",
          "type": "string"
        },
        {
          "internalType": "string",
          "name": "metadataURI",
          "type": "string"
        }
      ],
      "name": "mintQuestNFT",
      "outputs": [
        {
          "internalType": "uint256",
          "name": "",
          "type": "uint256"
        }
      ],
      "stateMutability": "nonpayable",
      "type": "function"
    },
    {
      "inputs": [],
      "name": "name",
      "outputs": [
        {
          "internalType": "string",
          "name": "",
          "type": "string"
        }
      ],
      "stateMutability": "view",
      "type": "function"
    },
    {
      "inputs": [],
      "name": "oracle",
      "outputs": [
        {
          "internalType": "address",
          "name": "",
          "type": "address"
        }
      ],
      "stateMutability": "view",
      "type": "function"
    },
    {
      "inputs": [],
      "name": "owner",
      "outputs": [
        {
          "internalType": "address",
          "name": "",
          "type": "address"
        }
      ],
      "stateMutability": "view",
      "type": "function"
    },
    {
      "inputs": [
        {
          "internalType": "uint256",
          "name": "tokenId",
          "type": "uint256"
        }
      ],
      "name": "ownerOf",
      "outputs": [
        {
          "internalType": "address",
          "name": "",
          "type": "address"
        }
      ],
      "stateMutability": "view",
      "type": "function"
    },
    {
      "inputs": [
        {
          "internalType": "uint256",
          "name": "",
          "type": "uint256"
        }
      ],
      "name": "questNFTs",
      "outputs": [
        {
          "internalType": "string",
          "name": "questId",
          "type": "string"
        },
        {
          "internalType": "address",
          "name": "user",
          "type": "address"
        },
        {
          "internalType": "uint256",
          "name": "timestamp",
          "type": "uint256"
        },
        {
          "internalType": "string",
          "name": "metadataURI",
          "type": "string"
        }
      ],
      "stateMutability": "view",
      "type": "function"
    },
    {
      "inputs": [],
      "name": "renounceOwnership",
      "outputs": [],
      "stateMutability": "nonpayable",
      "type": "function"
    },
    {
      "inputs": [
        {
          "internalType": "string",
          "name": "userId",
          "type": "string"
        }
      ],
      "name": "requestBalance",
      "outputs": [],
      "stateMutability": "nonpayable",
      "type": "function"
    },
    {
      "inputs": [
        {
          "internalType": "address",
          "name": "from",
          "type": "address"
        },
        {
          "internalType": "address",
          "name": "to",
          "type": "address"
        },
        {
          "internalType": "uint256",
          "name": "tokenId",
          "type": "uint256"
        }
      ],
      "name": "safeTransferFrom",
      "outputs": [],
      "stateMutability": "nonpayable",
      "type": "function"
    },
    {
      "inputs": [
        {
          "internalType": "address",
          "name": "from",
          "type": "address"
        },
        {
          "internalType": "address",
          "name": "to",
          "type": "address"
        },
        {
          "internalType": "uint256",
          "name": "tokenId",
          "type": "uint256"
        },
        {
          "internalType": "bytes",
          "name": "data",
          "type": "bytes"
        }
      ],
      "name": "safeTransferFrom",
      "outputs": [],
      "stateMutability": "nonpayable",
      "type": "function"
    },
    {
      "inputs": [
        {
          "internalType": "address",
          "name": "operator",
          "type": "address"
        },
        {
          "internalType": "bool",
          "name": "approved",
          "type": "bool"
        }
      ],
      "name": "setApprovalForAll",
      "outputs": [],
      "stateMutability": "nonpayable",
      "type": "function"
    },
    {
      "inputs": [
        {
          "internalType": "bytes4",
          "name": "interfaceId",
          "type": "bytes4"
        }
      ],
      "name": "supportsInterface",
      "outputs": [
        {
          "internalType": "bool",
          "name": "",
          "type": "bool"
        }
      ],
      "stateMutability": "view",
      "type": "function"
    },
    {
      "inputs": [],
      "name": "symbol",
      "outputs": [
        {
          "internalType": "string",
          "name": "",
          "type": "string"
        }
      ],
      "stateMutability": "view",
      "type": "function"
    },
    {
      "inputs": [
        {
          "internalType": "uint256",
          "name": "tokenId",
          "type": "uint256"
        }
      ],
      "name": "tokenURI",
      "outputs": [
        {
          "internalType": "string",
          "name": "",
          "type": "string"
        }
      ],
      "stateMutability": "view",
      "type": "function"
    },
    {
      "inputs": [
        {
          "internalType": "address",
          "name": "from",
          "type": "address"
        },
        {
          "internalType": "address",
          "name": "to",
          "type": "address"
        },
        {
          "internalType": "uint256",
          "name": "tokenId",
          "type": "uint256"
        }
      ],
      "name": "transferFrom",
      "outputs": [],
      "stateMutability": "nonpayable",
      "type": "function"
    },
    {
      "inputs": [
        {
          "internalType": "address",
          "name": "newOwner",
          "type": "address"
        }
      ],
      "name": "transferOwnership",
      "outputs": [],
      "stateMutability": "nonpayable",
      "type": "function"
    },
    {
      "inputs": [
        {
          "internalType": "address",
          "name": "",
          "type": "address"
        },
        {
          "internalType": "string",
          "name": "",
          "type": "string"
        }
      ],
      "name": "userQuestResults",
      "outputs": [
        {
          "internalType": "bool",
          "name": "completed",
          "type": "bool"
        },
        {
          "internalType": "uint256",
          "name": "value",
          "type": "uint256"
        },
        {
          "internalType": "string",
          "name": "details",
          "type": "string"
        },
        {
          "internalType": "uint256",
          "name": "tokenId",
          "type": "uint256"
        }
      ],
      "stateMutability": "view",
      "type": "function"
    },
    {
      "inputs": [
        {
          "internalType": "address",
          "name": "",
          "type": "address"
        },
        {
          "internalType": "string",
          "name": "",
          "type": "string"
        }
      ],
      "name": "userQuestTokenIds",
      "outputs": [
        {
          "internalType": "uint256",
          "name": "",
          "type": "uint256"
        }
      ],
      "stateMutability": "view",
      "type": "function"
    }
  ],
  "bytecode": "0x60806040523480156200001157600080fd5b50604051620029cc380380620029cc833981016040819052620000349162000160565b336040518060400160405280601681526020017f506c616964517565737420416368696576656d656e740000000000000000000081525060405180604001604052806006815260200165504c4149445160d01b81525081600090816200009b919062000237565b506001620000aa828262000237565b5050506001600160a01b038116620000dc57604051631e4fbdf760e01b81526000600482015260240160405180910390fd5b620000e7816200010e565b50600980546001600160a01b0319166001600160a01b039290921691909117905562000303565b600780546001600160a01b038381166001600160a01b0319831681179093556040519116919082907f8be0079c531659141344cd1fd0a4f28419497f9722a3daafe3b4186f6b6457e090600090a35050565b6000602082840312156200017357600080fd5b81516001600160a01b03811681146200018b57600080fd5b9392505050565b634e487b7160e01b600052604160045260246000fd5b600181811c90821680620001bd57607f821691505b602082108103620001de57634e487b7160e01b600052602260045260246000fd5b50919050565b601f8211156200023257600081815260208120601f850160051c810160208610156200020d5750805b601f850160051c820191505b818110156200022e5782815560010162000219565b5050505b505050565b81516001600160401b0381111562000253576200025362000192565b6200026b81620002648454620001a8565b84620001e4565b602080601f831160018114620002a357600084156200028a5750858301515b600019600386901b1c1916600185901b1785556200022e565b600085815260208120601f198616915b82811015620002d457888601518255948401946001909101908401620002b3565b5085821015620002f35787850151600019600388901b60f8161c191681555b5050505050600190811b01905550565b6126b980620003136000396000f3fe608060405234801561001057600080fd5b50600436106101735760003560e01c80638da5cb5b116100de578063b88d4fde11610097578063c87b56dd11610071578063c87b56dd14610384578063e985e9c514610397578063f0bcd5ed146103aa578063f2fde38b146103bd57600080fd5b8063b88d4fde1461034b578063c687a78a1461035e578063c69813891461037157600080fd5b80638da5cb5b146102a057806392ddf23c146102b157806395d89b41146102d157806398259c23146102d9578063999b48ea146102fc578063a22cb4651461033857600080fd5b806342842e0e1161013057806342842e0e1461022b57806349a85c071461023e5780636352211e1461025157806370a0823114610264578063715018a6146102855780637dc0d1d01461028d57600080fd5b806301ffc9a71461017857806306fdde03146101a0578063081812fc146101b5578063095ea7b3146101e057806318c8d9fa146101f557806323b872dd14610218575b600080fd5b61018b610186366004611d05565b6103d0565b60405190151581526020015b60405180910390f35b6101a86103e1565b6040516101979190611d72565b6101c86101c3366004611d85565b610473565b6040516001600160a01b039091168152602001610197565b6101f36101ee366004611dba565b61049c565b005b610208610203366004611e6f565b6104ab565b6040516101979493929190611ed0565b6101f3610226366004611f02565b61057c565b6101f3610239366004611f02565b61060c565b6101f361024c366004611f86565b61062c565b6101c861025f366004611d85565b6106a1565b610277610272366004611fc7565b6106ac565b604051908152602001610197565b6101f36106f4565b6009546101c8906001600160a01b031681565b6007546001600160a01b03166101c8565b6102c46102bf366004611fc7565b610708565b6040516101979190611fe2565b6101a8610864565b6102ec6102e7366004611d85565b610873565b6040516101979493929190612026565b61027761030a366004611e6f565b600c602090815260009283526040909220815180830184018051928152908401929093019190912091525481565b6101f361034636600461207c565b6109b9565b6101f36103593660046120af565b6109c4565b61027761036c36600461212a565b6109dc565b61027761037f3660046121aa565b610da1565b6101a8610392366004611d85565b611197565b61018b6103a5366004612247565b6111a2565b6102776103b8366004612271565b6111d0565b6101f36103cb366004611fc7565b611210565b60006103db8261124e565b92915050565b6060600080546103f0906122c3565b80601f016020809104026020016040519081016040528092919081815260200182805461041c906122c3565b80156104695780601f1061043e57610100808354040283529160200191610469565b820191906000526020600020905b81548152906001019060200180831161044c57829003601f168201915b5050505050905090565b600061047e82611273565b506000828152600460205260409020546001600160a01b03166103db565b6104a78282336112ac565b5050565b600a602090815260009283526040909220815180830184018051928152908401929093019190912091528054600182015460028301805460ff9093169391926104f3906122c3565b80601f016020809104026020016040519081016040528092919081815260200182805461051f906122c3565b801561056c5780601f106105415761010080835404028352916020019161056c565b820191906000526020600020905b81548152906001019060200180831161054f57829003601f168201915b5050505050908060030154905084565b6001600160a01b0382166105ab57604051633250574960e11b8152600060048201526024015b60405180910390fd5b60006105b88383336112b9565b9050836001600160a01b0316816001600160a01b031614610606576040516364283d7b60e01b81526001600160a01b03808616600483015260248201849052821660448201526064016105a2565b50505050565b610627838383604051806020016040528060008152506109c4565b505050565b60095460405163de6b222f60e01b81526001600160a01b039091169063de6b222f9061065e9085908590600401612326565b6020604051808303816000875af115801561067d573d6000803e3d6000fd5b505050506040513d601f19601f82011682018060405250810190610627919061233a565b60006103db82611273565b60006001600160a01b0382166106d8576040516322718ad960e21b8152600060048201526024016105a2565b506001600160a01b031660009081526003602052604090205490565b6106fc6113b2565b61070660006113df565b565b6008546060906000816001600160401b0381111561072857610728611de4565b604051908082528060200260200182016040528015610751578160200160208202803683370190505b5090506000805b838110156107bf576000818152600260205260409020546001600160a01b038781169116036107ad578083838151811061079457610794612353565b6020908102919091010152816107a98161237f565b9250505b806107b78161237f565b915050610758565b506000816001600160401b038111156107da576107da611de4565b604051908082528060200260200182016040528015610803578160200160208202803683370190505b50905060005b8281101561085a5783818151811061082357610823612353565b602002602001015182828151811061083d5761083d612353565b6020908102919091010152806108528161237f565b915050610809565b5095945050505050565b6060600180546103f0906122c3565b600b6020526000908152604090208054819061088e906122c3565b80601f01602080910402602001604051908101604052809291908181526020018280546108ba906122c3565b80156109075780601f106108dc57610100808354040283529160200191610907565b820191906000526020600020905b8154815290600101906020018083116108ea57829003601f168201915b505050506001830154600284015460038501805494956001600160a01b039093169491935090610936906122c3565b80601f0160208091040260200160405190810160405280929190818152602001828054610962906122c3565b80156109af5780601f10610984576101008083540402835291602001916109af565b820191906000526020600020905b81548152906001019060200180831161099257829003601f168201915b5050505050905084565b6104a7338383611431565b6109cf84848461057c565b61060633858585856114d0565b60006109e66113b2565b6001600160a01b0386166000908152600c6020526040908190209051610a0f9087908790612398565b908152602001604051809103902054600014610a64576001600160a01b0386166000908152600c6020526040908190209051610a4e9087908790612398565b9081526020016040518091039020549050610d98565b600880549081906000610a768361237f565b9190505550610a8587826115fb565b8215610ad057610acb8185858080601f01602080910402602001604051908101604052809392919081815260200183838082843760009201919091525061161592505050565b610b08565b6000610adb82611665565b604051602001610aeb91906123a8565b6040516020818303038152906040529050610b068282611615565b505b604051806080016040528087878080601f0160208091040260200160405190810160405280939291908181526020018383808284376000920191909152505050908252506001600160a01b038916602082015242604082015260600184610b9657610b7283611665565b604051602001610b8291906123a8565b604051602081830303815290604052610bcd565b85858080601f0160208091040260200160405190810160405280939291908181526020018383808284376000920191909152505050505b90526000828152600b6020526040902081518190610beb9082612433565b5060208201516001820180546001600160a01b0319166001600160a01b039092169190911790556040820151600282015560608201516003820190610c309082612433565b5050506001600160a01b0387166000908152600c6020526040908190209051829190610c5f9089908990612398565b9081526040805160209281900383018120939093556080830181526001835260008284018190528151808401835281815284830152606084018590526001600160a01b038b168152600a909252908190209051610cbf9089908990612398565b90815260408051602092819003830190208351815460ff19169015151781559183015160018301558201516002820190610cf99082612433565b5060608201518160030155905050866001600160a01b03167f5a48268e7c907d40b276dc3c11619046cfc366e79f44b39384ff205f4e878e74878784604051610d44939291906124f2565b60405180910390a2866001600160a01b03167f0249cb200c6dc80e8c4361716cc92a859bfbd6cc4a3b6af6b2e41c226f30287e878760016000604051610d8d9493929190612516565b60405180910390a290505b95945050505050565b6009546000906001600160a01b0316331480610dc757506007546001600160a01b031633145b610e135760405162461bcd60e51b815260206004820181905260248201527f4f6e6c79206f7261636c65206f72206f776e65722063616e2066756c66696c6c60448201526064016105a2565b6040518060800160405280861515815260200185815260200184848080601f016020809104026020016040519081016040528093929190818152602001838380828437600092018290525093855250505060209182018190526001600160a01b038b168152600a9091526040908190209051610e92908a908a90612398565b90815260408051602092819003830190208351815460ff19169015151781559183015160018301558201516002820190610ecc9082612433565b506060820151816003015590505060008515611140576001600160a01b0389166000908152600c6020526040908190209051610f0b908a908a90612398565b9081526020016040518091039020546000036111055750600880549081906000610f348361237f565b9190505550610f4389826115fb565b6000610f4e82611665565b604051602001610f5e91906123a8565b6040516020818303038152906040529050610f798282611615565b60405180608001604052808a8a8080601f01602080910402602001604051908101604052809392919081815260200183838082843760009201829052509385525050506001600160a01b038d16602080840191909152426040808501919091526060909301859052858252600b90522081518190610ff79082612433565b5060208201516001820180546001600160a01b0319166001600160a01b03909216919091179055604082015160028201556060820151600382019061103c9082612433565b5050506001600160a01b038a166000908152600a602052604090819020905183919061106b908c908c90612398565b9081526040805160209281900383018120600301939093556001600160a01b038d166000908152600c909252902083916110a8908c908c90612398565b908152602001604051809103902081905550896001600160a01b03167f5a48268e7c907d40b276dc3c11619046cfc366e79f44b39384ff205f4e878e748a8a856040516110f7939291906124f2565b60405180910390a250611140565b6001600160a01b0389166000908152600c602052604090819020905161112e908a908a90612398565b90815260200160405180910390205490505b886001600160a01b03167f0249cb200c6dc80e8c4361716cc92a859bfbd6cc4a3b6af6b2e41c226f30287e89898989898960405161118396959493929190612554565b60405180910390a298975050505050505050565b60606103db8261176d565b6001600160a01b03918216600090815260056020908152604080832093909416825291909152205460ff1690565b6001600160a01b0383166000908152600c602052604080822090516111f89085908590612398565b90815260200160405180910390205490509392505050565b6112186113b2565b6001600160a01b03811661124257604051631e4fbdf760e01b8152600060048201526024016105a2565b61124b816113df565b50565b60006001600160e01b03198216632483248360e11b14806103db57506103db82611876565b6000818152600260205260408120546001600160a01b0316806103db57604051637e27328960e01b8152600481018490526024016105a2565b61062783838360016118c6565b6000828152600260205260408120546001600160a01b03908116908316156112e6576112e68184866119cc565b6001600160a01b03811615611324576113036000856000806118c6565b6001600160a01b038116600090815260036020526040902080546000190190555b6001600160a01b03851615611353576001600160a01b0385166000908152600360205260409020805460010190555b60008481526002602052604080822080546001600160a01b0319166001600160a01b0389811691821790925591518793918516917fddf252ad1be2c89b69c2b068fc378daa952ba7f163c4a11628f55a4df523b3ef91a4949350505050565b6007546001600160a01b031633146107065760405163118cdaa760e01b81523360048201526024016105a2565b600780546001600160a01b038381166001600160a01b0319831681179093556040519116919082907f8be0079c531659141344cd1fd0a4f28419497f9722a3daafe3b4186f6b6457e090600090a35050565b6001600160a01b03821661146357604051630b61174360e31b81526001600160a01b03831660048201526024016105a2565b6001600160a01b03838116600081815260056020908152604080832094871680845294825291829020805460ff191686151590811790915591519182527f17307eab39ab6107e8899845ad3d59bd9653f200f220920489ca2b5937696c31910160405180910390a3505050565b6001600160a01b0383163b156115f457604051630a85bd0160e11b81526001600160a01b0384169063150b7a0290611512908890889087908790600401612596565b6020604051808303816000875af192505050801561154d575060408051601f3d908101601f1916820190925261154a918101906125d3565b60015b6115b6573d80801561157b576040519150601f19603f3d011682016040523d82523d6000602084013e611580565b606091505b5080516000036115ae57604051633250574960e11b81526001600160a01b03851660048201526024016105a2565b805160208201fd5b6001600160e01b03198116630a85bd0160e11b146115f257604051633250574960e11b81526001600160a01b03851660048201526024016105a2565b505b5050505050565b6104a7828260405180602001604052806000815250611a30565b600082815260066020526040902061162d8282612433565b506040518281527ff8e1a15aba9398e019f0b49df1a4fde98ee17ae345cb5f6b5e2c27f5033e8ce79060200160405180910390a15050565b60608160000361168c5750506040805180820190915260018152600360fc1b602082015290565b8160005b81156116b657806116a08161237f565b91506116af9050600a83612606565b9150611690565b6000816001600160401b038111156116d0576116d0611de4565b6040519080825280601f01601f1916602001820160405280156116fa576020820181803683370190505b5090505b84156117655761170f60018361261a565b915061171c600a8661262d565b611727906030612641565b60f81b81838151811061173c5761173c612353565b60200101906001600160f81b031916908160001a90535061175e600a86612606565b94506116fe565b949350505050565b606061177882611273565b5060008281526006602052604081208054611792906122c3565b80601f01602080910402602001604051908101604052809291908181526020018280546117be906122c3565b801561180b5780601f106117e05761010080835404028352916020019161180b565b820191906000526020600020905b8154815290600101906020018083116117ee57829003601f168201915b50505050509050600061182960408051602081019091526000815290565b9050805160000361183b575092915050565b81511561186d578082604051602001611855929190612654565b60405160208183030381529060405292505050919050565b61176584611a48565b60006001600160e01b031982166380ac58cd60e01b14806118a757506001600160e01b03198216635b5e139f60e01b145b806103db57506301ffc9a760e01b6001600160e01b03198316146103db565b80806118da57506001600160a01b03821615155b1561199c5760006118ea84611273565b90506001600160a01b038316158015906119165750826001600160a01b0316816001600160a01b031614155b8015611929575061192781846111a2565b155b156119525760405163a9fbf51f60e01b81526001600160a01b03841660048201526024016105a2565b811561199a5783856001600160a01b0316826001600160a01b03167f8c5be1e5ebec7d5bd14f71427d1e84f3dd0314c0f7b2291e5b200ac8c7c3b92560405160405180910390a45b505b5050600090815260046020526040902080546001600160a01b0319166001600160a01b0392909216919091179055565b6119d7838383611abd565b610627576001600160a01b038316611a0557604051637e27328960e01b8152600481018290526024016105a2565b60405163177e802f60e01b81526001600160a01b0383166004820152602481018290526044016105a2565b611a3a8383611b20565b6106273360008585856114d0565b6060611a5382611273565b506000611a6b60408051602081019091526000815290565b90506000815111611a8b5760405180602001604052806000815250611ab6565b80611a9584611b85565b604051602001611aa6929190612654565b6040516020818303038152906040525b9392505050565b60006001600160a01b038316158015906117655750826001600160a01b0316846001600160a01b03161480611af75750611af784846111a2565b806117655750506000908152600460205260409020546001600160a01b03908116911614919050565b6001600160a01b038216611b4a57604051633250574960e11b8152600060048201526024016105a2565b6000611b58838360006112b9565b90506001600160a01b03811615610627576040516339e3563760e11b8152600060048201526024016105a2565b60606000611b9283611c17565b60010190506000816001600160401b03811115611bb157611bb1611de4565b6040519080825280601f01601f191660200182016040528015611bdb576020820181803683370190505b5090508181016020015b600019016f181899199a1a9b1b9c1cb0b131b232b360811b600a86061a8153600a8504945084611be557509392505050565b60008072184f03e93ff9f4daa797ed6e38ed64bf6a1f0160401b8310611c565772184f03e93ff9f4daa797ed6e38ed64bf6a1f0160401b830492506040015b6d04ee2d6d415b85acef81000000008310611c82576d04ee2d6d415b85acef8100000000830492506020015b662386f26fc100008310611ca057662386f26fc10000830492506010015b6305f5e1008310611cb8576305f5e100830492506008015b6127108310611ccc57612710830492506004015b60648310611cde576064830492506002015b600a83106103db5760010192915050565b6001600160e01b03198116811461124b57600080fd5b600060208284031215611d1757600080fd5b8135611ab681611cef565b60005b83811015611d3d578181015183820152602001611d25565b50506000910152565b60008151808452611d5e816020860160208601611d22565b601f01601f19169290920160200192915050565b602081526000611ab66020830184611d46565b600060208284031215611d9757600080fd5b5035919050565b80356001600160a01b0381168114611db557600080fd5b919050565b60008060408385031215611dcd57600080fd5b611dd683611d9e565b946020939093013593505050565b634e487b7160e01b600052604160045260246000fd5b60006001600160401b0380841115611e1457611e14611de4565b604051601f8501601f19908116603f01168101908282118183101715611e3c57611e3c611de4565b81604052809350858152868686011115611e5557600080fd5b858560208301376000602087830101525050509392505050565b60008060408385031215611e8257600080fd5b611e8b83611d9e565b915060208301356001600160401b03811115611ea657600080fd5b8301601f81018513611eb757600080fd5b611ec685823560208401611dfa565b9150509250929050565b8415158152836020820152608060408201526000611ef16080830185611d46565b905082606083015295945050505050565b600080600060608486031215611f1757600080fd5b611f2084611d9e565b9250611f2e60208501611d9e565b9150604084013590509250925092565b60008083601f840112611f5057600080fd5b5081356001600160401b03811115611f6757600080fd5b602083019150836020828501011115611f7f57600080fd5b9250929050565b60008060208385031215611f9957600080fd5b82356001600160401b03811115611faf57600080fd5b611fbb85828601611f3e565b90969095509350505050565b600060208284031215611fd957600080fd5b611ab682611d9e565b6020808252825182820181905260009190848201906040850190845b8181101561201a57835183529284019291840191600101611ffe565b50909695505050505050565b6080815260006120396080830187611d46565b6001600160a01b03861660208401526040830185905282810360608401526120618185611d46565b979650505050505050565b80358015158114611db557600080fd5b6000806040838503121561208f57600080fd5b61209883611d9e565b91506120a66020840161206c565b90509250929050565b600080600080608085870312156120c557600080fd5b6120ce85611d9e565b93506120dc60208601611d9e565b92506040850135915060608501356001600160401b038111156120fe57600080fd5b8501601f8101871361210f57600080fd5b61211e87823560208401611dfa565b91505092959194509250565b60008060008060006060868803121561214257600080fd5b61214b86611d9e565b945060208601356001600160401b038082111561216757600080fd5b61217389838a01611f3e565b9096509450604088013591508082111561218c57600080fd5b5061219988828901611f3e565b969995985093965092949392505050565b600080600080600080600060a0888a0312156121c557600080fd5b6121ce88611d9e565b965060208801356001600160401b03808211156121ea57600080fd5b6121f68b838c01611f3e565b909850965086915061220a60408b0161206c565b955060608a0135945060808a013591508082111561222757600080fd5b506122348a828b01611f3e565b989b979a50959850939692959293505050565b6000806040838503121561225a57600080fd5b61226383611d9e565b91506120a660208401611d9e565b60008060006040848603121561228657600080fd5b61228f84611d9e565b925060208401356001600160401b038111156122aa57600080fd5b6122b686828701611f3e565b9497909650939450505050565b600181811c908216806122d757607f821691505b6020821081036122f757634e487b7160e01b600052602260045260246000fd5b50919050565b81835281816020850137506000828201602090810191909152601f909101601f19169091010190565b6020815260006117656020830184866122fd565b60006020828403121561234c57600080fd5b5051919050565b634e487b7160e01b600052603260045260246000fd5b634e487b7160e01b600052601160045260246000fd5b60006001820161239157612391612369565b5060010190565b8183823760009101908152919050565b7f68747470733a2f2f6170692e706c61696471756573742e636f6d2f6e66742f008152600082516123e081601f850160208701611d22565b91909101601f0192915050565b601f82111561062757600081815260208120601f850160051c810160208610156124145750805b601f850160051c820191505b818110156115f257828155600101612420565b81516001600160401b0381111561244c5761244c611de4565b6124608161245a84546122c3565b846123ed565b602080601f831160018114612495576000841561247d5750858301515b600019600386901b1c1916600185901b1785556115f2565b600085815260208120601f198616915b828110156124c4578886015182559484019460019091019084016124a5565b50858210156124e25787850151600019600388901b60f8161c191681555b5050505050600190811b01905550565b6040815260006125066040830185876122fd565b9050826020830152949350505050565b60808152600061252a6080830186886122fd565b84151560208401528360408401528281036060840152600081526020810191505095945050505050565b60808152600061256860808301888a6122fd565b861515602084015285604084015282810360608401526125898185876122fd565b9998505050505050505050565b6001600160a01b03858116825284166020820152604081018390526080606082018190526000906125c990830184611d46565b9695505050505050565b6000602082840312156125e557600080fd5b8151611ab681611cef565b634e487b7160e01b600052601260045260246000fd5b600082612615576126156125f0565b500490565b818103818111156103db576103db612369565b60008261263c5761263c6125f0565b500690565b808201808211156103db576103db612369565b60008351612666818460208801611d22565b83519083019061267a818360208801611d22565b0194935050505056fea2646970667358221220e12c5912b90f6ad5d5edeb5d97aca5db944a7ada6f484b9c80dcb44a9424625064736f6c63430008140033",
  "linkReferences": {},
  "deployedLinkReferences": {}
}